{
  "_format": "hh-sol-artifact-1",
  "contractName": "TodoContract",
  "sourceName": "contracts/TodoContract.sol",
  "abi": [
    {
      "anonymous": false,
      "inputs": [
        {
          "indexed": true,
          "internalType": "uint256",
          "name": "taskId",
          "type": "uint256"
        },
        {
          "indexed": true,
          "internalType": "address",
          "name": "owner",
          "type": "address"
        }
      ],
      "name": "TaskCompleted",
      "type": "event"
    },
    {
      "anonymous": false,
      "inputs": [
        {
          "indexed": true,
          "internalType": "uint256",
          "name": "taskId",
          "type": "uint256"
        },
        {
          "indexed": true,
          "internalType": "address",
          "name": "owner",
          "type": "address"
        },
        {
          "indexed": false,
          "internalType": "string",
          "name": "title",
          "type": "string"
        },
        {
          "indexed": false,
          "internalType": "string",
          "name": "description",
          "type": "string"
        },
        {
          "indexed": false,
          "internalType": "uint256",
          "name": "createdAt",
          "type": "uint256"
        }
      ],
      "name": "TaskCreated",
      "type": "event"
    },
    {
      "anonymous": false,
      "inputs": [
        {
          "indexed": true,
          "internalType": "uint256",
          "name": "taskId",
          "type": "uint256"
        },
        {
          "indexed": true,
          "internalType": "address",
          "name": "owner",
          "type": "address"
        }
      ],
      "name": "TaskDeleted",
      "type": "event"
    },
    {
      "anonymous": false,
      "inputs": [
        {
          "indexed": true,
          "internalType": "uint256",
          "name": "taskId",
          "type": "uint256"
        },
        {
          "indexed": true,
          "internalType": "address",
          "name": "owner",
          "type": "address"
        },
        {
          "indexed": false,
          "internalType": "string",
          "name": "title",
          "type": "string"
        },
        {
          "indexed": false,
          "internalType": "string",
          "name": "description",
          "type": "string"
        }
      ],
      "name": "TaskUpdated",
      "type": "event"
    },
    {
      "inputs": [
        {
          "internalType": "uint256",
          "name": "_taskId",
          "type": "uint256"
        }
      ],
      "name": "completeTask",
      "outputs": [],
      "stateMutability": "nonpayable",
      "type": "function"
    },
    {
      "inputs": [
        {
          "internalType": "string",
          "name": "_title",
          "type": "string"
        },
        {
          "internalType": "string",
          "name": "_description",
          "type": "string"
        }
      ],
      "name": "createTask",
      "outputs": [],
      "stateMutability": "nonpayable",
      "type": "function"
    },
    {
      "inputs": [
        {
          "internalType": "uint256",
          "name": "_taskId",
          "type": "uint256"
        }
      ],
      "name": "deleteTask",
      "outputs": [],
      "stateMutability": "nonpayable",
      "type": "function"
    },
    {
      "inputs": [
        {
          "internalType": "uint256",
          "name": "_taskId",
          "type": "uint256"
        }
      ],
      "name": "getTask",
      "outputs": [
        {
          "components": [
            {
              "internalType": "uint256",
              "name": "id",
              "type": "uint256"
            },
            {
              "internalType": "string",
              "name": "title",
              "type": "string"
            },
            {
              "internalType": "string",
              "name": "description",
              "type": "string"
            },
            {
              "internalType": "bool",
              "name": "completed",
              "type": "bool"
            },
            {
              "internalType": "uint256",
              "name": "createdAt",
              "type": "uint256"
            },
            {
              "internalType": "address",
              "name": "owner",
              "type": "address"
            }
          ],
          "internalType": "struct TodoContract.Task",
          "name": "",
          "type": "tuple"
        }
      ],
      "stateMutability": "view",
      "type": "function"
    },
    {
      "inputs": [],
      "name": "getTotalTasks",
      "outputs": [
        {
          "internalType": "uint256",
          "name": "",
          "type": "uint256"
        }
      ],
      "stateMutability": "view",
      "type": "function"
    },
    {
      "inputs": [
        {
          "internalType": "address",
          "name": "_user",
          "type": "address"
        }
      ],
      "name": "getUserTaskCount",
      "outputs": [
        {
          "internalType": "uint256",
          "name": "",
          "type": "uint256"
        }
      ],
      "stateMutability": "view",
      "type": "function"
    },
    {
      "inputs": [
        {
          "internalType": "address",
          "name": "_user",
          "type": "address"
        }
      ],
      "name": "getUserTasks",
      "outputs": [
        {
          "components": [
            {
              "internalType": "uint256",
              "name": "id",
              "type": "uint256"
            },
            {
              "internalType": "string",
              "name": "title",
              "type": "string"
            },
            {
              "internalType": "string",
              "name": "description",
              "type": "string"
            },
            {
              "internalType": "bool",
              "name": "completed",
              "type": "bool"
            },
            {
              "internalType": "uint256",
              "name": "createdAt",
              "type": "uint256"
            },
            {
              "internalType": "address",
              "name": "owner",
              "type": "address"
            }
          ],
          "internalType": "struct TodoContract.Task[]",
          "name": "",
          "type": "tuple[]"
        }
      ],
      "stateMutability": "view",
      "type": "function"
    },
    {
      "inputs": [],
      "name": "nextTaskId",
      "outputs": [
        {
          "internalType": "uint256",
          "name": "",
          "type": "uint256"
        }
      ],
      "stateMutability": "view",
      "type": "function"
    },
    {
      "inputs": [
        {
          "internalType": "uint256",
          "name": "",
          "type": "uint256"
        }
      ],
      "name": "tasks",
      "outputs": [
        {
          "internalType": "uint256",
          "name": "id",
          "type": "uint256"
        },
        {
          "internalType": "string",
          "name": "title",
          "type": "string"
        },
        {
          "internalType": "string",
          "name": "description",
          "type": "string"
        },
        {
          "internalType": "bool",
          "name": "completed",
          "type": "bool"
        },
        {
          "internalType": "uint256",
          "name": "createdAt",
          "type": "uint256"
        },
        {
          "internalType": "address",
          "name": "owner",
          "type": "address"
        }
      ],
      "stateMutability": "view",
      "type": "function"
    },
    {
      "inputs": [
        {
          "internalType": "uint256",
          "name": "_taskId",
          "type": "uint256"
        },
        {
          "internalType": "string",
          "name": "_title",
          "type": "string"
        },
        {
          "internalType": "string",
          "name": "_description",
          "type": "string"
        }
      ],
      "name": "updateTask",
      "outputs": [],
      "stateMutability": "nonpayable",
      "type": "function"
    },
    {
      "inputs": [
        {
          "internalType": "address",
          "name": "",
          "type": "address"
        },
        {
          "internalType": "uint256",
          "name": "",
          "type": "uint256"
        }
      ],
      "name": "userTasks",
      "outputs": [
        {
          "internalType": "uint256",
          "name": "",
          "type": "uint256"
        }
      ],
      "stateMutability": "view",
      "type": "function"
    }
  ],
  "bytecode": "0x6080604052348015600f57600080fd5b506120838061001f6000396000f3fe608060405234801561001057600080fd5b50600436106100a95760003560e01c80638d977672116100715780638d9776721461016457806395d5766014610199578063c72ef41f146101c9578063e1e29558146101e5578063f85496b714610201578063fdc3d8d714610231576100a9565b80631d65e77e146100ae578063292a4585146100de5780633c93b905146100fa578063560f31921461011857806366873a5514610134575b600080fd5b6100c860048036038101906100c39190611386565b61024f565b6040516100d5919061153e565b60405180910390f35b6100f860048036038101906100f39190611695565b61047c565b005b610102610657565b60405161010f919061171c565b60405180910390f35b610132600480360381019061012d9190611386565b610661565b005b61014e60048036038101906101499190611763565b610925565b60405161015b919061171c565b60405180910390f35b61017e60048036038101906101799190611386565b610956565b6040516101909695949392919061180b565b60405180910390f35b6101b360048036038101906101ae919061187a565b610acf565b6040516101c091906119f9565b60405180910390f35b6101e360048036038101906101de9190611a1b565b610ed1565b005b6101ff60048036038101906101fa9190611386565b61106a565b005b61021b6004803603810190610216919061187a565b61123f565b604051610228919061171c565b60405180910390f35b61023961128b565b604051610246919061171c565b60405180910390f35b610257611291565b600080600084815260200190815260200160002060000154036102af576040517f08c379a00000000000000000000000000000000000000000000000000000000081526004016102a690611af2565b60405180910390fd5b6000808381526020019081526020016000206040518060c0016040529081600082015481526020016001820180546102e690611b41565b80601f016020809104026020016040519081016040528092919081815260200182805461031290611b41565b801561035f5780601f106103345761010080835404028352916020019161035f565b820191906000526020600020905b81548152906001019060200180831161034257829003601f168201915b5050505050815260200160028201805461037890611b41565b80601f01602080910402602001604051908101604052809291908181526020018280546103a490611b41565b80156103f15780601f106103c6576101008083540402835291602001916103f1565b820191906000526020600020905b8154815290600101906020018083116103d457829003601f168201915b505050505081526020016003820160009054906101000a900460ff16151515158152602001600482015481526020016005820160009054906101000a900473ffffffffffffffffffffffffffffffffffffffff1673ffffffffffffffffffffffffffffffffffffffff1673ffffffffffffffffffffffffffffffffffffffff16815250509050919050565b60006002600081548092919061049190611ba1565b9190505590506040518060c001604052808281526020018481526020018381526020016000151581526020014281526020013373ffffffffffffffffffffffffffffffffffffffff1681525060008083815260200190815260200160002060008201518160000155602082015181600101908161050e9190611d95565b5060408201518160020190816105249190611d95565b5060608201518160030160006101000a81548160ff0219169083151502179055506080820151816004015560a08201518160050160006101000a81548173ffffffffffffffffffffffffffffffffffffffff021916908373ffffffffffffffffffffffffffffffffffffffff160217905550905050600160003373ffffffffffffffffffffffffffffffffffffffff1673ffffffffffffffffffffffffffffffffffffffff1681526020019081526020016000208190806001815401808255809150506001900390600052602060002001600090919091909150553373ffffffffffffffffffffffffffffffffffffffff16817fe0393124f968b6d1b690a1b9551216bea388443a77d8bbf2485fc962d13f9a0985854260405161064a93929190611e67565b60405180910390a3505050565b6000600254905090565b803373ffffffffffffffffffffffffffffffffffffffff1660008083815260200190815260200160002060050160009054906101000a900473ffffffffffffffffffffffffffffffffffffffff1673ffffffffffffffffffffffffffffffffffffffff1614610705576040517f08c379a00000000000000000000000000000000000000000000000000000000081526004016106fc90611ef8565b60405180910390fd5b6000806000838152602001908152602001600020600001540361075d576040517f08c379a000000000000000000000000000000000000000000000000000000000815260040161075490611af2565b60405180910390fd5b6000600160003373ffffffffffffffffffffffffffffffffffffffff1673ffffffffffffffffffffffffffffffffffffffff168152602001908152602001600020905060005b818054905081101561085b57838282815481106107c3576107c2611f18565b5b90600052602060002001540361084e5781600183805490506107e59190611f47565b815481106107f6576107f5611f18565b5b906000526020600020015482828154811061081457610813611f18565b5b90600052602060002001819055508180548061083357610832611f7b565b5b6001900381819060005260206000200160009055905561085b565b80806001019150506107a3565b5060008084815260200190815260200160002060008082016000905560018201600061088791906112df565b60028201600061089791906112df565b6003820160006101000a81549060ff021916905560048201600090556005820160006101000a81549073ffffffffffffffffffffffffffffffffffffffff021916905550503373ffffffffffffffffffffffffffffffffffffffff16837f342ff6c61d8ac95b75821982d3bac415a2f2e4f121b1fccda188bd67d31324b760405160405180910390a3505050565b6001602052816000526040600020818154811061094157600080fd5b90600052602060002001600091509150505481565b600060205280600052604060002060009150905080600001549080600101805461097f90611b41565b80601f01602080910402602001604051908101604052809291908181526020018280546109ab90611b41565b80156109f85780601f106109cd576101008083540402835291602001916109f8565b820191906000526020600020905b8154815290600101906020018083116109db57829003601f168201915b505050505090806002018054610a0d90611b41565b80601f0160208091040260200160405190810160405280929190818152602001828054610a3990611b41565b8015610a865780601f10610a5b57610100808354040283529160200191610a86565b820191906000526020600020905b815481529060010190602001808311610a6957829003601f168201915b5050505050908060030160009054906101000a900460ff16908060040154908060050160009054906101000a900473ffffffffffffffffffffffffffffffffffffffff16905086565b60606000600160008473ffffffffffffffffffffffffffffffffffffffff1673ffffffffffffffffffffffffffffffffffffffff168152602001908152602001600020805480602002602001604051908101604052809291908181526020018280548015610b5c57602002820191906000526020600020905b815481526020019060010190808311610b48575b505050505090506000815167ffffffffffffffff811115610b8057610b7f61156a565b5b604051908082528060200260200182016040528015610bb957816020015b610ba6611291565b815260200190600190039081610b9e5790505b5090506000805b8351811015610e1a576000806000868481518110610be157610be0611f18565b5b602002602001015181526020019081526020016000206000015414610e0d57600080858381518110610c1657610c15611f18565b5b602002602001015181526020019081526020016000206040518060c001604052908160008201548152602001600182018054610c5190611b41565b80601f0160208091040260200160405190810160405280929190818152602001828054610c7d90611b41565b8015610cca5780601f10610c9f57610100808354040283529160200191610cca565b820191906000526020600020905b815481529060010190602001808311610cad57829003601f168201915b50505050508152602001600282018054610ce390611b41565b80601f0160208091040260200160405190810160405280929190818152602001828054610d0f90611b41565b8015610d5c5780601f10610d3157610100808354040283529160200191610d5c565b820191906000526020600020905b815481529060010190602001808311610d3f57829003601f168201915b505050505081526020016003820160009054906101000a900460ff16151515158152602001600482015481526020016005820160009054906101000a900473ffffffffffffffffffffffffffffffffffffffff1673ffffffffffffffffffffffffffffffffffffffff1673ffffffffffffffffffffffffffffffffffffffff1681525050838381518110610df357610df2611f18565b5b60200260200101819052508180610e0990611ba1565b9250505b8080600101915050610bc0565b5060008167ffffffffffffffff811115610e3757610e3661156a565b5b604051908082528060200260200182016040528015610e7057816020015b610e5d611291565b815260200190600190039081610e555790505b50905060005b82811015610ec457838181518110610e9157610e90611f18565b5b6020026020010151828281518110610eac57610eab611f18565b5b60200260200101819052508080600101915050610e76565b5080945050505050919050565b823373ffffffffffffffffffffffffffffffffffffffff1660008083815260200190815260200160002060050160009054906101000a900473ffffffffffffffffffffffffffffffffffffffff1673ffffffffffffffffffffffffffffffffffffffff1614610f75576040517f08c379a0000000000000000000000000000000000000000000000000000000008152600401610f6c90611ef8565b60405180910390fd5b60008060008381526020019081526020016000206000015403610fcd576040517f08c379a0000000000000000000000000000000000000000000000000000000008152600401610fc490611af2565b60405180910390fd5b826000808681526020019081526020016000206001019081610fef9190611d95565b508160008086815260200190815260200160002060020190816110129190611d95565b503373ffffffffffffffffffffffffffffffffffffffff16847f58ddd1dc343e084e157b5a8ca38f057b456c576b176d4559887fc1e40d602e51858560405161105c929190611faa565b60405180910390a350505050565b803373ffffffffffffffffffffffffffffffffffffffff1660008083815260200190815260200160002060050160009054906101000a900473ffffffffffffffffffffffffffffffffffffffff1673ffffffffffffffffffffffffffffffffffffffff161461110e576040517f08c379a000000000000000000000000000000000000000000000000000000000815260040161110590611ef8565b60405180910390fd5b60008060008381526020019081526020016000206000015403611166576040517f08c379a000000000000000000000000000000000000000000000000000000000815260040161115d90611af2565b60405180910390fd5b60008083815260200190815260200160002060030160009054906101000a900460ff16156111c9576040517f08c379a00000000000000000000000000000000000000000000000000000000081526004016111c09061202d565b60405180910390fd5b600160008084815260200190815260200160002060030160006101000a81548160ff0219169083151502179055503373ffffffffffffffffffffffffffffffffffffffff16827fbb5889c77948badf90e8a5c73d55265e5f5d6e4837a79a78c5669691b897faed60405160405180910390a35050565b6000600160008373ffffffffffffffffffffffffffffffffffffffff1673ffffffffffffffffffffffffffffffffffffffff168152602001908152602001600020805490509050919050565b60025481565b6040518060c0016040528060008152602001606081526020016060815260200160001515815260200160008152602001600073ffffffffffffffffffffffffffffffffffffffff1681525090565b5080546112eb90611b41565b6000825580601f106112fd575061131c565b601f01602090049060005260206000209081019061131b919061131f565b5b50565b5b80821115611338576000816000905550600101611320565b5090565b6000604051905090565b600080fd5b600080fd5b6000819050919050565b61136381611350565b811461136e57600080fd5b50565b6000813590506113808161135a565b92915050565b60006020828403121561139c5761139b611346565b5b60006113aa84828501611371565b91505092915050565b6113bc81611350565b82525050565b600081519050919050565b600082825260208201905092915050565b60005b838110156113fc5780820151818401526020810190506113e1565b60008484015250505050565b6000601f19601f8301169050919050565b6000611424826113c2565b61142e81856113cd565b935061143e8185602086016113de565b61144781611408565b840191505092915050565b60008115159050919050565b61146781611452565b82525050565b600073ffffffffffffffffffffffffffffffffffffffff82169050919050565b60006114988261146d565b9050919050565b6114a88161148d565b82525050565b600060c0830160008301516114c660008601826113b3565b50602083015184820360208601526114de8282611419565b915050604083015184820360408601526114f88282611419565b915050606083015161150d606086018261145e565b50608083015161152060808601826113b3565b5060a083015161153360a086018261149f565b508091505092915050565b6000602082019050818103600083015261155881846114ae565b905092915050565b600080fd5b600080fd5b7f4e487b7100000000000000000000000000000000000000000000000000000000600052604160045260246000fd5b6115a282611408565b810181811067ffffffffffffffff821117156115c1576115c061156a565b5b80604052505050565b60006115d461133c565b90506115e08282611599565b919050565b600067ffffffffffffffff821115611600576115ff61156a565b5b61160982611408565b9050602081019050919050565b82818337600083830152505050565b6000611638611633846115e5565b6115ca565b90508281526020810184848401111561165457611653611565565b5b61165f848285611616565b509392505050565b600082601f83011261167c5761167b611560565b5b813561168c848260208601611625565b91505092915050565b600080604083850312156116ac576116ab611346565b5b600083013567ffffffffffffffff8111156116ca576116c961134b565b5b6116d685828601611667565b925050602083013567ffffffffffffffff8111156116f7576116f661134b565b5b61170385828601611667565b9150509250929050565b61171681611350565b82525050565b6000602082019050611731600083018461170d565b92915050565b6117408161148d565b811461174b57600080fd5b50565b60008135905061175d81611737565b92915050565b6000806040838503121561177a57611779611346565b5b60006117888582860161174e565b925050602061179985828601611371565b9150509250929050565b600082825260208201905092915050565b60006117bf826113c2565b6117c981856117a3565b93506117d98185602086016113de565b6117e281611408565b840191505092915050565b6117f681611452565b82525050565b6118058161148d565b82525050565b600060c082019050611820600083018961170d565b818103602083015261183281886117b4565b9050818103604083015261184681876117b4565b905061185560608301866117ed565b611862608083018561170d565b61186f60a08301846117fc565b979650505050505050565b6000602082840312156118905761188f611346565b5b600061189e8482850161174e565b91505092915050565b600081519050919050565b600082825260208201905092915050565b6000819050602082019050919050565b600060c0830160008301516118eb60008601826113b3565b50602083015184820360208601526119038282611419565b9150506040830151848203604086015261191d8282611419565b9150506060830151611932606086018261145e565b50608083015161194560808601826113b3565b5060a083015161195860a086018261149f565b508091505092915050565b600061196f83836118d3565b905092915050565b6000602082019050919050565b600061198f826118a7565b61199981856118b2565b9350836020820285016119ab856118c3565b8060005b858110156119e757848403895281516119c88582611963565b94506119d383611977565b925060208a019950506001810190506119af565b50829750879550505050505092915050565b60006020820190508181036000830152611a138184611984565b905092915050565b600080600060608486031215611a3457611a33611346565b5b6000611a4286828701611371565b935050602084013567ffffffffffffffff811115611a6357611a6261134b565b5b611a6f86828701611667565b925050604084013567ffffffffffffffff811115611a9057611a8f61134b565b5b611a9c86828701611667565b9150509250925092565b7f5461736b20646f6573206e6f7420657869737400000000000000000000000000600082015250565b6000611adc6013836117a3565b9150611ae782611aa6565b602082019050919050565b60006020820190508181036000830152611b0b81611acf565b9050919050565b7f4e487b7100000000000000000000000000000000000000000000000000000000600052602260045260246000fd5b60006002820490506001821680611b5957607f821691505b602082108103611b6c57611b6b611b12565b5b50919050565b7f4e487b7100000000000000000000000000000000000000000000000000000000600052601160045260246000fd5b6000611bac82611350565b91507fffffffffffffffffffffffffffffffffffffffffffffffffffffffffffffffff8203611bde57611bdd611b72565b5b600182019050919050565b60008190508160005260206000209050919050565b60006020601f8301049050919050565b600082821b905092915050565b600060088302611c4b7fffffffffffffffffffffffffffffffffffffffffffffffffffffffffffffffff82611c0e565b611c558683611c0e565b95508019841693508086168417925050509392505050565b6000819050919050565b6000611c92611c8d611c8884611350565b611c6d565b611350565b9050919050565b6000819050919050565b611cac83611c77565b611cc0611cb882611c99565b848454611c1b565b825550505050565b600090565b611cd5611cc8565b611ce0818484611ca3565b505050565b5b81811015611d0457611cf9600082611ccd565b600181019050611ce6565b5050565b601f821115611d4957611d1a81611be9565b611d2384611bfe565b81016020851015611d32578190505b611d46611d3e85611bfe565b830182611ce5565b50505b505050565b600082821c905092915050565b6000611d6c60001984600802611d4e565b1980831691505092915050565b6000611d858383611d5b565b9150826002028217905092915050565b611d9e826113c2565b67ffffffffffffffff811115611db757611db661156a565b5b611dc18254611b41565b611dcc828285611d08565b600060209050601f831160018114611dff5760008415611ded578287015190505b611df78582611d79565b865550611e5f565b601f198416611e0d86611be9565b60005b82811015611e3557848901518255600182019150602085019450602081019050611e10565b86831015611e525784890151611e4e601f891682611d5b565b8355505b6001600288020188555050505b505050505050565b60006060820190508181036000830152611e8181866117b4565b90508181036020830152611e9581856117b4565b9050611ea4604083018461170d565b949350505050565b7f4e6f7420746865207461736b206f776e65720000000000000000000000000000600082015250565b6000611ee26012836117a3565b9150611eed82611eac565b602082019050919050565b60006020820190508181036000830152611f1181611ed5565b9050919050565b7f4e487b7100000000000000000000000000000000000000000000000000000000600052603260045260246000fd5b6000611f5282611350565b9150611f5d83611350565b9250828203905081811115611f7557611f74611b72565b5b92915050565b7f4e487b7100000000000000000000000000000000000000000000000000000000600052603160045260246000fd5b60006040820190508181036000830152611fc481856117b4565b90508181036020830152611fd881846117b4565b90509392505050565b7f5461736b20616c726561647920636f6d706c6574656400000000000000000000600082015250565b60006120176016836117a3565b915061202282611fe1565b602082019050919050565b600060208201905081810360008301526120468161200a565b905091905056fea26469706673582212207c883f82fd803dcffcb7b037ac20e9e4b010fadd83d20927e772a6c43e94c91b64736f6c634300081c0033",
  "linkReferences": {},
  "deployedLinkReferences": {}
}